{
  "contractName": "YungBet",
  "abi": [
    {
      "constant": false,
      "inputs": [],
      "name": "renounceOwnership",
      "outputs": [],
      "payable": false,
      "stateMutability": "nonpayable",
      "type": "function"
    },
    {
      "constant": true,
      "inputs": [],
      "name": "owner",
      "outputs": [
        {
          "name": "",
          "type": "address"
        }
      ],
      "payable": false,
      "stateMutability": "view",
      "type": "function"
    },
    {
      "constant": true,
      "inputs": [],
      "name": "isOwner",
      "outputs": [
        {
          "name": "",
          "type": "bool"
        }
      ],
      "payable": false,
      "stateMutability": "view",
      "type": "function"
    },
    {
      "constant": false,
      "inputs": [
        {
          "name": "newOwner",
          "type": "address"
        }
      ],
      "name": "transferOwnership",
      "outputs": [],
      "payable": false,
      "stateMutability": "nonpayable",
      "type": "function"
    },
    {
      "anonymous": false,
      "inputs": [
        {
          "indexed": false,
          "name": "bet_amount",
          "type": "uint256"
        },
        {
          "indexed": false,
          "name": "bet_payout",
          "type": "uint256"
        },
        {
          "indexed": false,
          "name": "bet_roll",
          "type": "uint256"
        }
      ],
      "name": "betPlaced",
      "type": "event"
    },
    {
      "anonymous": false,
      "inputs": [
        {
          "indexed": true,
          "name": "previousOwner",
          "type": "address"
        }
      ],
      "name": "OwnershipRenounced",
      "type": "event"
    },
    {
      "anonymous": false,
      "inputs": [
        {
          "indexed": true,
          "name": "previousOwner",
          "type": "address"
        },
        {
          "indexed": true,
          "name": "newOwner",
          "type": "address"
        }
      ],
      "name": "OwnershipTransferred",
      "type": "event"
    },
    {
      "constant": false,
      "inputs": [],
      "name": "makeBet",
      "outputs": [],
      "payable": true,
      "stateMutability": "payable",
      "type": "function"
    },
    {
      "constant": false,
      "inputs": [],
      "name": "RandomNumber",
      "outputs": [
        {
          "name": "",
          "type": "uint256"
        }
      ],
      "payable": false,
      "stateMutability": "nonpayable",
      "type": "function"
    }
  ],
  "bytecode": "0x6080604052336000806101000a81548173ffffffffffffffffffffffffffffffffffffffff021916908373ffffffffffffffffffffffffffffffffffffffff16021790555061074d806100536000396000f300608060405260043610610078576000357c0100000000000000000000000000000000000000000000000000000000900463ffffffff168063561e91a11461007d578063715018a6146100875780638da5cb5b1461009e5780638e3957d9146100f55780638f32d59b14610120578063f2fde38b1461014f575b600080fd5b610085610192565b005b34801561009357600080fd5b5061009c6102e0565b005b3480156100aa57600080fd5b506100b361039a565b604051808273ffffffffffffffffffffffffffffffffffffffff1673ffffffffffffffffffffffffffffffffffffffff16815260200191505060405180910390f35b34801561010157600080fd5b5061010a6103c3565b6040518082815260200191505060405180910390f35b34801561012c57600080fd5b50610135610587565b604051808215151515815260200191505060405180910390f35b34801561015b57600080fd5b50610190600480360381019080803573ffffffffffffffffffffffffffffffffffffffff1690602001909291905050506105de565b005b6000806000803393503492506101a66103c3565b91506101bc6002846105fd90919063ffffffff16565b90503073ffffffffffffffffffffffffffffffffffffffff16318110151561024c576040517f08c379a000000000000000000000000000000000000000000000000000000000815260040180806020018281038252601b8152602001807f436f6e74726163742062616c616e636520746f6f206c6f772e2e2e000000000081525060200191505060405180910390fd5b8373ffffffffffffffffffffffffffffffffffffffff166108fc829081150290604051600060405180830381858888f19350505050158015610292573d6000803e3d6000fd5b507f29dc04bf89dba8a5bcd17cb79fe248dbfc2760b3710172d0c0875bb37f26bea683828460405180848152602001838152602001828152602001935050505060405180910390a150505050565b6102e8610587565b15156102f357600080fd5b6000809054906101000a900473ffffffffffffffffffffffffffffffffffffffff1673ffffffffffffffffffffffffffffffffffffffff167ff8df31144d9c2f0f6b59d69b8b98abd5459d07f2742c4df920b25aae33c6482060405160405180910390a260008060006101000a81548173ffffffffffffffffffffffffffffffffffffffff021916908373ffffffffffffffffffffffffffffffffffffffff160217905550565b60008060009054906101000a900473ffffffffffffffffffffffffffffffffffffffff16905090565b600080600160003373ffffffffffffffffffffffffffffffffffffffff1673ffffffffffffffffffffffffffffffffffffffff16815260200190815260200160002060008154809291906001019190505550600160003373ffffffffffffffffffffffffffffffffffffffff1673ffffffffffffffffffffffffffffffffffffffff1681526020019081526020016000205490504340600160003373ffffffffffffffffffffffffffffffffffffffff1673ffffffffffffffffffffffffffffffffffffffff16815260200190815260200160002054604051602001808360001916600019168152602001828152602001925050506040516020818303038152906040526040518082805190602001908083835b6020831015156104fc57805182526020820191506020810190506020830392506104d7565b6001836020036101000a03801982511681845116808217855250505050505090500191505060405180910390206001900490506105627f0235fadd81c2822bb3f07877973d50f28bf22a31be8ee8000000000000000000826105fd90919063ffffffff16565b9050606481111561057257606490505b600081101561058057600090505b8091505090565b60008060009054906101000a900473ffffffffffffffffffffffffffffffffffffffff1673ffffffffffffffffffffffffffffffffffffffff163373ffffffffffffffffffffffffffffffffffffffff1614905090565b6105e6610587565b15156105f157600080fd5b6105fa81610627565b50565b60008060008311151561060f57600080fd5b828481151561061a57fe5b0490508091505092915050565b600073ffffffffffffffffffffffffffffffffffffffff168173ffffffffffffffffffffffffffffffffffffffff161415151561066357600080fd5b8073ffffffffffffffffffffffffffffffffffffffff166000809054906101000a900473ffffffffffffffffffffffffffffffffffffffff1673ffffffffffffffffffffffffffffffffffffffff167f8be0079c531659141344cd1fd0a4f28419497f9722a3daafe3b4186f6b6457e060405160405180910390a3806000806101000a81548173ffffffffffffffffffffffffffffffffffffffff021916908373ffffffffffffffffffffffffffffffffffffffff160217905550505600a165627a7a72305820e881ee3bf3320e0d396ff0786862581b3417fe31af3f4611c36b7372cc4fbd2e0029",
  "source": "pragma solidity ^0.4.23;\n\nimport \"./Ownable.sol\";\nimport \"./SafeMath.sol\";\n\ncontract YungBet is Ownable {\n\n    using SafeMath for uint;\n\n    mapping(address => uint) total_bets;\n\n    event betPlaced(uint bet_amount, uint bet_payout, uint bet_roll);\n\n    function makeBet() public payable {\n        address user = msg.sender;\n        uint bet_amount = msg.value;\n\n        uint bet_roll = RandomNumber();\n        uint bet_payout = bet_amount.div(2);\n\n        require(bet_payout < address(this).balance, \"Contract balance too low...\");\n\n        user.transfer(bet_payout);\n\n        emit betPlaced(bet_amount, bet_payout, bet_roll);\n    }\n\n    function RandomNumber() public returns(uint) {\n        total_bets[msg.sender]++;\n        uint random_number = total_bets[msg.sender];\n        random_number = uint(\n            keccak256(\n                abi.encodePacked(\n                    blockhash(block.number),\n                    total_bets[msg.sender]\n                )\n            )\n        );\n\n        random_number = random_number.div(10**75);\n\n        if (random_number > 100) random_number = 100;\n        if (random_number < 0) random_number = 0;\n\n        return uint(random_number);\n    }\n\n}\n",
  "sourcePath": "/Users/chriscates/Projects/GamblingEOS/solidity/contracts/YungBet.sol",
  "compiler": {
    "name": "solc",
    "version": "0.4.24+commit.e67f0147.Emscripten.clang"
  },
  "schemaVersion": "2.0.1",
  "updatedAt": "2018-11-18T01:05:54.519Z"
}